{
    "contractName": "Auction",
    "abi": [
        {
            "inputs": [
                {
                    "internalType": "uint256",
                    "name": "time",
                    "type": "uint256"
                },
                {
                    "internalType": "address payable",
                    "name": "beneficiary",
                    "type": "address"
                }
            ],
            "stateMutability": "nonpayable",
            "type": "constructor"
        },
        {
            "anonymous": false,
            "inputs": [
                {
                    "indexed": false,
                    "internalType": "address",
                    "name": "winner",
                    "type": "address"
                },
                {
                    "indexed": false,
                    "internalType": "uint256",
                    "name": "amount",
                    "type": "uint256"
                },
                {
                    "indexed": false,
                    "internalType": "uint256",
                    "name": "EndingTime",
                    "type": "uint256"
                }
            ],
            "name": "AuctionEnded",
            "type": "event"
        },
        {
            "anonymous": false,
            "inputs": [
                {
                    "indexed": false,
                    "internalType": "address",
                    "name": "bidder",
                    "type": "address"
                },
                {
                    "indexed": false,
                    "internalType": "uint256",
                    "name": "amount",
                    "type": "uint256"
                }
            ],
            "name": "BidIncreased",
            "type": "event"
        },
        {
            "anonymous": false,
            "inputs": [
                {
                    "indexed": false,
                    "internalType": "address",
                    "name": "winner",
                    "type": "address"
                },
                {
                    "indexed": false,
                    "internalType": "uint256",
                    "name": "amount",
                    "type": "uint256"
                }
            ],
            "name": "WonAuction",
            "type": "event"
        },
        {
            "inputs": [],
            "name": "EndingTime",
            "outputs": [
                {
                    "internalType": "uint256",
                    "name": "",
                    "type": "uint256"
                }
            ],
            "stateMutability": "view",
            "type": "function"
        },
        {
            "inputs": [],
            "name": "bid",
            "outputs": [],
            "stateMutability": "payable",
            "type": "function"
        },
        {
            "inputs": [
                {
                    "internalType": "address",
                    "name": "",
                    "type": "address"
                }
            ],
            "name": "bidders",
            "outputs": [
                {
                    "internalType": "uint256",
                    "name": "",
                    "type": "uint256"
                }
            ],
            "stateMutability": "view",
            "type": "function"
        },
        {
            "inputs": [],
            "name": "endAuction",
            "outputs": [],
            "stateMutability": "nonpayable",
            "type": "function"
        }
    ],
    "bytecode": "608060405234801561001057600080fd5b506040516102f73803806102f783398101604081905261002f91610037565b506100749050565b6000806040838503121561004a57600080fd5b825160208401519092506001600160a01b038116811461006957600080fd5b809150509250929050565b610274806100836000396000f3fe60806040526004361061003f5760003560e01c80631998aeef1461004457806359d545e31461004e578063fcc8f79314610076578063fe67a54b146100a3575b600080fd5b61004c6100b8565b005b34801561005a57600080fd5b5061006460035481565b60405190815260200160405180910390f35b34801561008257600080fd5b5061006461009136600461020e565b60006020819052908152604090205481565b3480156100af57600080fd5b5061004c610177565b60035442111561011457600154600254600354604080516001600160a01b039094168452602084019290925282820152517fc358e8e3f205b5e7453abd5cbac388ca4552b887b69001bc972b88610c7490359181900360600190a15b60025434111561017557600180546001600160a01b031916339081179091553460028190556040805192835260208301919091527fcf84a46a93294358c23e7c87e557feb461890c72f3547fb25b455167dcea9efb91015b60405180910390a15b565b600354421015610175576004546002546040516001600160a01b039092169181156108fc0291906000818181858888f193505050501580156101bd573d6000803e3d6000fd5b50600154600254600354604080516001600160a01b0390941684526020840192909252908201527fc358e8e3f205b5e7453abd5cbac388ca4552b887b69001bc972b88610c7490359060600161016c565b60006020828403121561022057600080fd5b81356001600160a01b038116811461023757600080fd5b939250505056fea264697066735822122091b3bf531be5e97b1b20d3b39f12c18bb58901bf9ec075ed7152547f4d742cf764736f6c634300080a0033",
    "sourcePath": "/home/memez-michalek/Desktop/projects/robie-rap-nie-zaprawiam-polecam-ale-nie-pozdrawiam/contract.sol",
    "compiler": {
        "name": "solc",
        "version": "0.8.10+commit.fc410830"
    },
    "functionHashes": {
        "EndingTime()": "59d545e3",
        "bid()": "1998aeef",
        "bidders(address)": "fcc8f793",
        "endAuction()": "fe67a54b"
    },
    "gasEstimates": {
        "creation": {
            "codeDepositCost": "125600",
            "executionCost": "infinite",
            "totalCost": "infinite"
        },
        "external": {
            "EndingTime()": "2283",
            "bid()": "59970",
            "bidders(address)": "2497",
            "endAuction()": "infinite"
        }
    }
}