{
  "contractName": "Auction",
  "abi": [
    {
      "inputs": [
        {
          "internalType": "uint256",
          "name": "time",
          "type": "uint256"
        },
        {
          "internalType": "address payable",
          "name": "beneficiary",
          "type": "address"
        }
      ],
      "stateMutability": "nonpayable",
      "type": "constructor"
    },
    {
      "anonymous": false,
      "inputs": [
        {
          "indexed": false,
          "internalType": "address",
          "name": "winner",
          "type": "address"
        },
        {
          "indexed": false,
          "internalType": "uint256",
          "name": "amount",
          "type": "uint256"
        },
        {
          "indexed": false,
          "internalType": "uint256",
          "name": "EndingTime",
          "type": "uint256"
        }
      ],
      "name": "AuctionEnded",
      "type": "event"
    },
    {
      "anonymous": false,
      "inputs": [
        {
          "indexed": false,
          "internalType": "address",
          "name": "bidder",
          "type": "address"
        },
        {
          "indexed": false,
          "internalType": "uint256",
          "name": "amount",
          "type": "uint256"
        }
      ],
      "name": "BidIncreased",
      "type": "event"
    },
    {
      "anonymous": false,
      "inputs": [
        {
          "indexed": false,
          "internalType": "address",
          "name": "winner",
          "type": "address"
        },
        {
          "indexed": false,
          "internalType": "uint256",
          "name": "amount",
          "type": "uint256"
        }
      ],
      "name": "WonAuction",
      "type": "event"
    },
    {
      "inputs": [],
      "name": "EndingTime",
      "outputs": [
        {
          "internalType": "uint256",
          "name": "",
          "type": "uint256"
        }
      ],
      "stateMutability": "view",
      "type": "function"
    },
    {
      "inputs": [
        {
          "internalType": "address",
          "name": "",
          "type": "address"
        }
      ],
      "name": "bidders",
      "outputs": [
        {
          "internalType": "uint256",
          "name": "",
          "type": "uint256"
        }
      ],
      "stateMutability": "view",
      "type": "function"
    },
    {
      "inputs": [],
      "name": "bid",
      "outputs": [],
      "stateMutability": "payable",
      "type": "function"
    },
    {
      "inputs": [],
      "name": "endAuction",
      "outputs": [],
      "stateMutability": "nonpayable",
      "type": "function"
    }
  ],
  "bytecode": "0x608060405234801561001057600080fd5b50604051610596380380610596833981810160405281019061003291906100fc565b600460009054906101000a900473ffffffffffffffffffffffffffffffffffffffff1690506003549150505061013c565b600080fd5b6000819050919050565b61007b81610068565b811461008657600080fd5b50565b60008151905061009881610072565b92915050565b600073ffffffffffffffffffffffffffffffffffffffff82169050919050565b60006100c98261009e565b9050919050565b6100d9816100be565b81146100e457600080fd5b50565b6000815190506100f6816100d0565b92915050565b6000806040838503121561011357610112610063565b5b600061012185828601610089565b9250506020610132858286016100e7565b9150509250929050565b61044b8061014b6000396000f3fe60806040526004361061003f5760003560e01c80631998aeef1461004457806359d545e31461004e578063fcc8f79314610079578063fe67a54b146100b6575b600080fd5b61004c6100cd565b005b34801561005a57600080fd5b506100636101eb565b60405161007091906102fb565b60405180910390f35b34801561008557600080fd5b506100a0600480360381019061009b9190610379565b6101f1565b6040516100ad91906102fb565b60405180910390f35b3480156100c257600080fd5b506100cb610209565b005b600354421115610139577fc358e8e3f205b5e7453abd5cbac388ca4552b887b69001bc972b88610c749035600160009054906101000a900473ffffffffffffffffffffffffffffffffffffffff16600254600354604051610130939291906103b5565b60405180910390a15b6002543411156101e95733600160006101000a81548173ffffffffffffffffffffffffffffffffffffffff021916908373ffffffffffffffffffffffffffffffffffffffff160217905550346002819055507fcf84a46a93294358c23e7c87e557feb461890c72f3547fb25b455167dcea9efb600160009054906101000a900473ffffffffffffffffffffffffffffffffffffffff166002546040516101e09291906103ec565b60405180910390a15b565b60035481565b60006020528060005260406000206000915090505481565b6003544210156102e057600460009054906101000a900473ffffffffffffffffffffffffffffffffffffffff1673ffffffffffffffffffffffffffffffffffffffff166108fc6002549081150290604051600060405180830381858888f1935050505015801561027d573d6000803e3d6000fd5b507fc358e8e3f205b5e7453abd5cbac388ca4552b887b69001bc972b88610c749035600160009054906101000a900473ffffffffffffffffffffffffffffffffffffffff166002546003546040516102d7939291906103b5565b60405180910390a15b565b6000819050919050565b6102f5816102e2565b82525050565b600060208201905061031060008301846102ec565b92915050565b600080fd5b600073ffffffffffffffffffffffffffffffffffffffff82169050919050565b60006103468261031b565b9050919050565b6103568161033b565b811461036157600080fd5b50565b6000813590506103738161034d565b92915050565b60006020828403121561038f5761038e610316565b5b600061039d84828501610364565b91505092915050565b6103af8161033b565b82525050565b60006060820190506103ca60008301866103a6565b6103d760208301856102ec565b6103e460408301846102ec565b949350505050565b600060408201905061040160008301856103a6565b61040e60208301846102ec565b939250505056fea26469706673582212206dcdacece8bccae1dcb1a170dc5879eef555bea46ce0a5ef58a8bf14c92db78c64736f6c634300080a0033",
  "immutableReferences": {},
  "source": "// SPDX-License-Identifier: MIT\n\npragma solidity  >=0.8.10;\n\n\ncontract Auction{\n\n    mapping(address=>uint256) public bidders;\n    address highestBidder;\n    uint256 highestAmount;\n    uint public EndingTime;\n    address payable auctionSetter;\n\n    event WonAuction(address winner, uint256 amount);\n    event BidIncreased(address bidder, uint256 amount);\n    event AuctionEnded(address winner, uint256 amount,uint EndingTime);\n\n\n    constructor(\n        uint time,\n        address payable beneficiary\n    ){\n        beneficiary = auctionSetter;\n        time = EndingTime;\n    }\n\n\n    function bid() public payable{\n        if(block.timestamp> EndingTime){\n            emit AuctionEnded(highestBidder, highestAmount, EndingTime);\n        }\n        if(msg.value> highestAmount){\n            highestBidder = msg.sender;\n            highestAmount = msg.value;\n            emit BidIncreased(highestBidder, highestAmount);\n        }\n    }\n    function endAuction() external{\n        if(block.timestamp < EndingTime){\n            auctionSetter.transfer(highestAmount);\n            emit AuctionEnded(highestBidder, highestAmount, EndingTime);\n        }\n\n\n\n\n    }\n\n\n}\n\n\n",
  "sourcePath": "/home/memez-michalek/Desktop/projects/robie-rap-nie-zaprawiam-polecam-ale-nie-pozdrawiam/contracts/contract.sol",
  "compiler": {
    "name": "solc",
    "version": "0.8.10+commit.fc410830.Emscripten.clang"
  },
  "schemaVersion": "3.4.1",
  "updatedAt": "2021-12-05T22:51:02.946Z",
  "devdoc": {
    "kind": "dev",
    "methods": {},
    "version": 1
  },
  "userdoc": {
    "kind": "user",
    "methods": {},
    "version": 1
  }
}