{
  "contractName": "SomeContract",
  "abi": [
    {
      "inputs": [
        {
          "internalType": "address payable",
          "name": "beneficiary",
          "type": "address"
        },
        {
          "internalType": "uint256",
          "name": "time",
          "type": "uint256"
        }
      ],
      "stateMutability": "nonpayable",
      "type": "constructor"
    },
    {
      "anonymous": false,
      "inputs": [
        {
          "indexed": false,
          "internalType": "address",
          "name": "addr",
          "type": "address"
        },
        {
          "indexed": false,
          "internalType": "uint256",
          "name": "highestBid",
          "type": "uint256"
        }
      ],
      "name": "AuctionFailure",
      "type": "event"
    },
    {
      "anonymous": false,
      "inputs": [
        {
          "indexed": false,
          "internalType": "uint256",
          "name": "highestBid",
          "type": "uint256"
        },
        {
          "indexed": false,
          "internalType": "address",
          "name": "highestBidder",
          "type": "address"
        },
        {
          "indexed": false,
          "internalType": "uint256",
          "name": "finishedAt",
          "type": "uint256"
        }
      ],
      "name": "AutctionEnded",
      "type": "event"
    },
    {
      "anonymous": false,
      "inputs": [
        {
          "indexed": false,
          "internalType": "address",
          "name": "addr",
          "type": "address"
        }
      ],
      "name": "BidError",
      "type": "event"
    },
    {
      "anonymous": false,
      "inputs": [
        {
          "indexed": false,
          "internalType": "address",
          "name": "recipient",
          "type": "address"
        },
        {
          "indexed": false,
          "internalType": "uint256",
          "name": "amount",
          "type": "uint256"
        }
      ],
      "name": "WithdrawFailure",
      "type": "event"
    },
    {
      "inputs": [],
      "name": "auctionBeneficiary",
      "outputs": [
        {
          "internalType": "address",
          "name": "",
          "type": "address"
        }
      ],
      "stateMutability": "view",
      "type": "function"
    },
    {
      "inputs": [],
      "name": "auctionTime",
      "outputs": [
        {
          "internalType": "uint256",
          "name": "",
          "type": "uint256"
        }
      ],
      "stateMutability": "view",
      "type": "function"
    },
    {
      "inputs": [],
      "name": "done",
      "outputs": [
        {
          "internalType": "bool",
          "name": "",
          "type": "bool"
        }
      ],
      "stateMutability": "view",
      "type": "function"
    },
    {
      "inputs": [],
      "name": "highestBid",
      "outputs": [
        {
          "internalType": "uint256",
          "name": "",
          "type": "uint256"
        }
      ],
      "stateMutability": "view",
      "type": "function"
    },
    {
      "inputs": [],
      "name": "highestBidder",
      "outputs": [
        {
          "internalType": "address",
          "name": "",
          "type": "address"
        }
      ],
      "stateMutability": "view",
      "type": "function"
    },
    {
      "inputs": [],
      "name": "bid",
      "outputs": [],
      "stateMutability": "payable",
      "type": "function"
    },
    {
      "inputs": [],
      "name": "withdraw",
      "outputs": [],
      "stateMutability": "payable",
      "type": "function"
    },
    {
      "inputs": [],
      "name": "endAuction",
      "outputs": [],
      "stateMutability": "nonpayable",
      "type": "function"
    }
  ],
  "bytecode": "0x608060405234801561001057600080fd5b5060405161086b38038061086b83398181016040528101906100329190610124565b816000806101000a81548173ffffffffffffffffffffffffffffffffffffffff021916908373ffffffffffffffffffffffffffffffffffffffff160217905550804261007e9190610193565b60018190555050506101e9565b600080fd5b600073ffffffffffffffffffffffffffffffffffffffff82169050919050565b60006100bb82610090565b9050919050565b6100cb816100b0565b81146100d657600080fd5b50565b6000815190506100e8816100c2565b92915050565b6000819050919050565b610101816100ee565b811461010c57600080fd5b50565b60008151905061011e816100f8565b92915050565b6000806040838503121561013b5761013a61008b565b5b6000610149858286016100d9565b925050602061015a8582860161010f565b9150509250929050565b7f4e487b7100000000000000000000000000000000000000000000000000000000600052601160045260246000fd5b600061019e826100ee565b91506101a9836100ee565b9250827fffffffffffffffffffffffffffffffffffffffffffffffffffffffffffffffff038211156101de576101dd610164565b5b828201905092915050565b610673806101f86000396000f3fe60806040526004361061007b5760003560e01c806391f901571161004e57806391f90157146100ea578063ae8421e114610115578063d57bde7914610140578063fe67a54b1461016b5761007b565b8063155f586d146100805780631998aeef146100ab5780633ccfd60b146100b55780638995b71a146100bf575b600080fd5b34801561008c57600080fd5b50610095610182565b6040516100a29190610567565b60405180910390f35b6100b3610188565b005b6100bd6102b7565b005b3480156100cb57600080fd5b506100d461040c565b6040516100e191906105c3565b60405180910390f35b3480156100f657600080fd5b506100ff610430565b60405161010c91906105c3565b60405180910390f35b34801561012157600080fd5b5061012a610456565b60405161013791906105f9565b60405180910390f35b34801561014c57600080fd5b50610155610469565b6040516101629190610567565b60405180910390f35b34801561017757600080fd5b5061018061046f565b005b60015481565b60015442116102b55760008054906101000a900473ffffffffffffffffffffffffffffffffffffffff1673ffffffffffffffffffffffffffffffffffffffff163373ffffffffffffffffffffffffffffffffffffffff16141561021d577f6ef5d485e57a6d4a57613b23cf87a98c384523ca970b7d3af17868f3ee691a693360405161021491906105c3565b60405180910390a15b6004543411156102b45734600360003373ffffffffffffffffffffffffffffffffffffffff1673ffffffffffffffffffffffffffffffffffffffff168152602001908152602001600020819055503460048190555033600560006101000a81548173ffffffffffffffffffffffffffffffffffffffff021916908373ffffffffffffffffffffffffffffffffffffffff1602179055505b5b565b600560009054906101000a900473ffffffffffffffffffffffffffffffffffffffff1673ffffffffffffffffffffffffffffffffffffffff163373ffffffffffffffffffffffffffffffffffffffff161461040a576000600360003373ffffffffffffffffffffffffffffffffffffffff1673ffffffffffffffffffffffffffffffffffffffff1681526020019081526020016000205490506000600360003373ffffffffffffffffffffffffffffffffffffffff1673ffffffffffffffffffffffffffffffffffffffff168152602001908152602001600020819055503373ffffffffffffffffffffffffffffffffffffffff166108fc829081150290604051600060405180830381858888f19350505050610408577f6404f5c2a74d778969c021c0863952552d713aa6563cd37e08712e38d4dcdb7c33826040516103ff929190610614565b60405180910390a15b505b565b60008054906101000a900473ffffffffffffffffffffffffffffffffffffffff1681565b600560009054906101000a900473ffffffffffffffffffffffffffffffffffffffff1681565b600260009054906101000a900460ff1681565b60045481565b42600154101561054c576001600260006101000a81548160ff02191690831515021790555060008054906101000a900473ffffffffffffffffffffffffffffffffffffffff1673ffffffffffffffffffffffffffffffffffffffff166108fc6004549081150290604051600060405180830381858888f1935050505061054b577f79e53e537572dad25694c675f44127bc85f3465f6abbdb39a3becbe49ac292db60008054906101000a900473ffffffffffffffffffffffffffffffffffffffff16600454604051610542929190610614565b60405180910390a15b5b565b6000819050919050565b6105618161054e565b82525050565b600060208201905061057c6000830184610558565b92915050565b600073ffffffffffffffffffffffffffffffffffffffff82169050919050565b60006105ad82610582565b9050919050565b6105bd816105a2565b82525050565b60006020820190506105d860008301846105b4565b92915050565b60008115159050919050565b6105f3816105de565b82525050565b600060208201905061060e60008301846105ea565b92915050565b600060408201905061062960008301856105b4565b6106366020830184610558565b939250505056fea2646970667358221220038e3ca3f95790b1fc1deb02cb6cc53ac0c815a82a8d49c2a8b53d1358b32f5c64736f6c634300080a0033",
  "immutableReferences": {},
  "source": "// SPDX-License-Identifier: MIT\n\npragma solidity  >=0.8.10;\n\n\ncontract SomeContract{\n    address public auctionBeneficiary;\n    uint256 public auctionTime;\n    bool public done;\n    mapping(address => uint256) bids;\n    uint256 public highestBid;\n    address public highestBidder;\n\n\n    constructor (\n        address payable beneficiary,\n        uint256 time\n    ){\n        auctionBeneficiary = beneficiary;\n        auctionTime = block.timestamp + time;\n    }\n    event WithdrawFailure(address recipient, uint256 amount);\n    event BidError(address addr);\n    event AutctionEnded(uint256 highestBid, address highestBidder, uint256 finishedAt);\n    event AuctionFailure(address addr, uint256 highestBid);\n\n    function bid() payable public{\n        if(!(block.timestamp>auctionTime)){\n            \n        \n        if(msg.sender == auctionBeneficiary){\n            emit BidError(msg.sender);\n        }\n        if(msg.value > highestBid){\n            bids[msg.sender] = msg.value;\n            highestBid = msg.value;\n            highestBidder = msg.sender;\n        }\n        }\n    }\n    function withdraw() payable public{\n        if(!(msg.sender == highestBidder)){\n\n        \n        uint256 amount = bids[msg.sender];\n        bids[msg.sender] = 0;\n        if(!payable(msg.sender).send(amount)){\n            emit WithdrawFailure(msg.sender, amount);\n        }\n        }\n    }\n    function endAuction() public{\n        if(auctionTime < block.timestamp){\n            done = true;\n            if (!payable(auctionBeneficiary).send(highestBid)){\n                emit AuctionFailure(auctionBeneficiary, highestBid);\n            }\n        }\n    }\n}\n\n\n",
  "sourcePath": "/home/memez-michalek/Desktop/projects/robie-rap-nie-zaprawiam-polecam-ale-nie-pozdrawiam/contracts/contract.sol",
  "compiler": {
    "name": "solc",
    "version": "0.8.10+commit.fc410830.Emscripten.clang"
  },
  "schemaVersion": "3.4.1",
  "updatedAt": "2021-12-07T23:09:06.698Z",
  "devdoc": {
    "kind": "dev",
    "methods": {},
    "version": 1
  },
  "userdoc": {
    "kind": "user",
    "methods": {},
    "version": 1
  }
}